:020000040800F2
:1000000000180020051D0008591C00085B1C000892
:1000100000000000000000000000000000000000E0
:100020000000000000000000000000005D1C00084F
:1000300000000000000000005F1C0008611C0008B8
:10004000751D0008751D0008751D0008751D000848
:10005000751D0008751D0008691C0008731C000848
:10006000751D0008751D0008751D0008751D000828
:10007000751D0008751D0008751D0008751D000818
:10008000751D00080000000000000000851C00082D
:1000900000000000951C0008751D0008751D000873
:1000A00000000000751D0008751D0008751D000882
:1000B000751D000800000000751D0008751D000872
:1000C00010B5064C2378002B07D1054B002B02D02E
:1000D000044800E000BF0123237010BD040000208D
:1000E00000000000E41D0008044B10B5002B03D0F5
:1000F0000349044800E000BF10BDC04600000000F6
:1001000008000020E41D000802B4714649084900B7
:10011000095649008E4402BC7047C04602B471467D
:1001200049084900095C49008E4402BC7047C0463A
:10013000002243088B4274D303098B425FD3030A26
:100140008B4244D3030B8B4228D3030C8B420DD339
:10015000FF22090212BA030C8B4202D312120902C7
:1001600065D0030B8B4219D300E0090AC30B8B4205
:1001700001D3CB03C01A5241830B8B4201D38B03B3
:10018000C01A5241430B8B4201D34B03C01A524158
:10019000030B8B4201D30B03C01A5241C30A8B429B
:1001A00001D3CB02C01A5241830A8B4201D38B0286
:1001B000C01A5241430A8B4201D34B02C01A52412A
:1001C000030A8B4201D30B02C01A5241CDD2C3099C
:1001D0008B4201D3CB01C01A524183098B4201D318
:1001E0008B01C01A524143098B4201D34B01C01A03
:1001F000524103098B4201D30B01C01A5241C3087B
:100200008B4201D3CB00C01A524183088B4201D3E9
:100210008B00C01A524143088B4201D34B00C01AD5
:100220005241411A00D20146524110467047FFE741
:1002300001B5002000F006F802BDC0460029F7D045
:1002400076E770477047C04610B5040000F068FCC0
:10025000FA218900FFF76CFF00F070F801200022FE
:100260002100404200F030F8002010BD1023064A63
:1002700010B5116800200B431360FFF7E5FF01F094
:1002800035FC002010BDC04600200240024A136821
:10029000013313607047C04620000020014B1868EE
:1002A0007047C0462000002037B50190FFF7F6FFE9
:1002B000019C0500631C5A1E9341E418FFF7EEFFF2
:1002C000401BA042FAD337BD70B58901002814DA6B
:1002D0000F23C0B20340083B114A9B089B009B18A8
:1002E000032210409040FC321500114085408140AF
:1002F000DC69AC432143D96170BD032583082840E4
:10030000A840FC352E00074A9B009B18C02286405F
:100310002940814092009C58B44321439950EBE717
:1003200000ED00E000E100E01F2318401E3B834089
:10033000014A13607047C04600E100E0094A431ECD
:10034000012093420DD8C021074A08485360036A30
:1003500009061B021B0A0B4303620020072390605F
:1003600013607047FFFFFF0010E000E000ED00E0C9
:10037000F0B50B6887B0029300230191029ADA402E
:1003800001D107B0F0BD01229A4003920399029A6D
:100390000A40009200D188E0019A102152681600AC
:1003A0008E43022E0ED107251D40AD000139A94014
:1003B000DC08A4000419276A8F4301990969A94040
:1003C0000F43276203245F00BC40E4430568013EFD
:1003D0002540AC4603251540BD4061460D430560F0
:1003E000012E0FD801998668CD682640BD4035435F
:1003F00085604668039915098E4301210D409D4093
:1004000035434560C56801992C408D688021BD4009
:1004100049052C43C4600A4247D00121244C0326DD
:10042000A5691E400D43A561A4699D080C40059473
:10043000059C0F241F49AD00B6006D18B4409021F3
:10044000AF68C905A7430024884208D01A4901347F
:10045000884204D019490434884200D1033CB44096
:1004600000993C430E00AC60154CCD4327683E43D9
:10047000D10301D43E002E4026606768009E3E43B3
:10048000910301D43E002E406660A768009E3E4363
:10049000D10201D43E002E40A660E668009F37439B
:1004A000920201D42E403700E760013366E7C04670
:1004B000001002400000014000040048000800480D
:1004C00000040140002A01D0816170478162FCE78D
:1004D000044B10B55A69104202D0586101F048F936
:1004E00010BDC04600040140F0B5036885B00500AA
:1004F000DB0733D42B689B0700D58AE02B681B07EA
:1005000000D5CAE02B685B0700D5EDE02B68DB0661
:100510001AD56A69BC4C0423012A00D059E1616BE9
:1005200002260B436363636B1A436263FFF7B6FEF5
:100530000700636B334200D144E1F821626BAB6981
:100540008A43DB00134363632B689B0600D567E196
:10055000696A002900D0A4E1002018E00C21AA4C0F
:1005600062680A40042A0BD063680B40082B10D144
:10057000C02263685202134080225202934208D183
:1005800023689B03B6D56B68002BB3D1012005B05F
:10059000F0BD6B68012B13D1802322685B021343EB
:1005A0002360FFF77BFE80260700B60223683342F4
:1005B000A0D1FFF773FEC01B6428F7D90320E6E73C
:1005C000002B16D12368914A8026134023602368AC
:1005D0008F4AB60213402360FFF760FE07002368CE
:1005E000334200D186E7FFF759FEC01B6428F6D9D5
:1005F000E4E7052B05D180232268DB021343236047
:10060000CAE72368814A134023602368804A134065
:10061000C6E70C227C4C636813420BD0636813401E
:10062000082B15D1C02263685202134080221202A7
:1006300093420DD123689B0702D5EB68012BA5D10E
:10064000F82122682B698A43DB001343236055E7B6
:10065000EA680123002A0FD0226802261343236090
:10066000FFF71CFE070023683342E9D1FFF716FEAF
:10067000C01B0228F7D9A1E7226802269A4322600C
:10068000FFF70CFE07002368334200D136E7FFF77F
:1006900005FEC01B0228F6D990E7EA6901235A4CEF
:1006A000002A10D0626A022613436362FFF7F6FD48
:1006B0000700636A334200D024E7FFF7EFFDC01B59
:1006C0000228F6D97AE7626A02269A436262FFF745
:1006D000E5FD0700636A334200D113E7FFF7DEFD53
:1006E000C01B0228F6D969E780220021464C52053A
:1006F000E3690091134208D1E3691343E361E369BD
:1007000013400393039B012300938027414E7F00F6
:1007100033683B4206D0AB68012B13D1226A1343E6
:10072000236230E033683B433360FFF7B7FD01904D
:1007300033683B42EFD1FFF7B1FD019BC01A64283B
:10074000F6D93BE70122002B14D1236A02279343F9
:100750002362236A033293432362FFF79FFD06005F
:10076000236A3B4225D0FFF799FD2B4B801B984213
:10077000F6D923E7052B0BD1216A013B0B432362FA
:10078000236A1A432262FFF789FD022706000DE063
:10079000236A934304222362236A9343C0E7FFF74B
:1007A0007DFD1D4B801B984200D907E7236A3B4221
:1007B000F5D0009B012B00D0A8E6E369174A13404F
:1007C000E361A3E6FFF76AFDC01B022800D8B0E68C
:1007D000F4E6053203D1626B9A436263ADE6626B65
:1007E0000226134301226363636B93436363FFF742
:1007F00055FD0700636B334200D1A5E6FFF74EFDC0
:10080000C01B0228F6D9D9E600100240FFFFFEFF08
:10081000FFFFFBFF0070004088130000FFFFFFEFA9
:100820000C21464C62680A408A4209D063680B403A
:10083000082B0ED1C022636852021340934208D1A4
:10084000636BDB0300D483E62B6A012B00D09DE6AB
:100850007EE62B6A002B11D08026636B7602334331
:100860006363FFF71BFD0700636B334200D06FE645
:10087000FFF714FDC01B0228F6D99FE6636B304AD0
:10088000802613406363FFF709FD07007602636B60
:10089000334200D15CE6FFF701FDC01B0228F6D908
:1008A0008CE60C22254C63681340082B00D16DE6C2
:1008B0002368244A1340236002292FD1FFF7EEFC5E
:1008C00080260700B6042368334221D10F22E36A51
:1008D00093432A6B1343E362A96AEB6A62680B4392
:1008E000194980250A4013436360802322685B0412
:1008F00013432360FFF7D2FC0600AD0423682B42AC
:1009000000D029E6FFF7CAFC801B0228F6D955E67D
:10091000FFF7C4FCC01B0228D5D94FE6FFF7BEFC89
:1009200080250600AD0423682B4200D114E6FFF7B2
:10093000B5FC801B0228F6D940E6C04600100240F4
:10094000FFFFFEFFFFFFFFFEFF7FC2FF70B5194CE8
:1009500088B010222100684601F032FA210004AD6F
:1009600010221031280001F02BFA0C22124E73686D
:100970001A40082A04D00C2A1AD1104808B070BDB9
:100980000F206A46990C0140545CF26A0240A95C4F
:10099000C0228020520213404002834201D1084805
:1009A00002E09342FBD10548FFF7C2FB6043E5E755
:1009B0000348E3E7FC1D000800100240006CDC0265
:1009C00000127A00F7B501224F4C0600236801910E
:1009D00013408B421FD33268930728D4D3072ED4F9
:1009E0000123226801991A40914200D27EE03368C7
:1009F000464C5B0700D580E0FFF7A8FF6368444AD8
:100A00001B061B0FD35CD840424B18600020FFF739
:100A10001BFC00200AE02368019993430B432360E9
:100A200023681340019A9A42D5D00120FEBDF020E0
:100A300036494B688343B06803434B60CEE7726826
:100A4000324D012A1AD12B689B03EED503216B6826
:100A50008B4313436B60FFF721FC73680700012B86
:100A60001CD10C226B681340042BB9D0FFF716FC85
:100A7000294BC01B9842F4D90320D7E7022A03D19F
:100A80002B689B01E2D4D0E7032A03D16B6BDB0315
:100A9000DCD4CAE72B689B07D8D4C6E7022B0BD15E
:100AA0000C226B681340082B9AD0FFF7F7FB1A4B08
:100AB000C01B9842F4D9DFE7032B11D00C226B68DE
:100AC000134200D18CE7FFF7E9FB134BC01B9842A0
:100AD000F4D9D1E7FFF7E2FB0F4BC01B9842CBD80C
:100AE0000C226B6813409342F4D179E722689A4351
:100AF000226022681A4298D179E76368074A134056
:100B0000F2681343636077E7002002400010024060
:100B1000201E00080000002088130000FFF8FFFFDF
:100B2000014B18687047C04600000020044B054A7E
:100B30005B685B055B0FD35C034A1068D840704765
:100B400000100240301E000800000020F0B50368CD
:100B500085B00500DB0328D580220021404C5205DA
:100B6000E3690091134208D1E3691343E361E36948
:100B700013400393039B012300938027394E7F008A
:100B800033683B4238D0C022236A92001340364E6D
:100B900044D1236A1E406B681E43009B2662012BD2
:100BA00003D1E369314A1340E3612A68D30706D5CC
:100BB00003202B490B6B8343A86803430B63930605
:100BC00006D5102026490B6B8343E86803430B636B
:100BD000930306D5802022490B6B83436869034346
:100BE0000B630020530517D540211D4A136B8B431F
:100BF00029690B4313630FE033683B433360FFF70E
:100C00004DFB019033683B42BDD1FFF747FB019B91
:100C1000C01A6428F6D9032005B0F0BD69680A40FF
:100C20009342B6D08023226A206A11005B020343FC
:100C30002362236A0E483140034023622162D307B6
:100C4000A7D5FFF72BFB07000222236A1342A0D18E
:100C5000FFF724FB074BC01B9842F5D9DBE7C046E2
:100C60000010024000700040FFFCFFFFFFFFFFEF9D
:100C7000FFFFFEFF881300000122036A70B5934353
:100C80000362036A44688569723295430A681543B2
:100C9000022293438A681343114A904205D0114EB1
:100CA000B04202D0104EB04213D10826B343CE68F2
:100CB00033430426B343904205D00A4A904202D0FF
:100CC000094A904205D1094A8E6922404C69344351
:100CD00014434A68446085614263036270BDC04644
:100CE000002C01400044014000480140FFFCFFFF90
:100CF00070B57325036A164A13400362036A42689B
:100D0000C469AC430D682C43124D2B408D682D02F5
:100D10002B43114DA8420ED1104D1D40CB681B0234
:100D20002B430F4D2B400F4D4E6915408A693243BE
:100D300012012A4305E00C4DA842F4D00B4DA84205
:100D4000F1D042604A68C461C263036270BDC046AC
:100D5000FFFEFFFFFFFDFFFF002C0140FFF7FFFF3D
:100D6000FFFBFFFFFFCFFFFF0044014000480140B1
:100D7000036A124A30B513400362026A104C43689A
:100D8000C56925400C68240225430E4C22408C681E
:100D9000240322430C4CA04205D00C4CA04202D0AC
:100DA0000B4CA04204D10B4C23404C69A4012343BB
:100DB00043604B68C5610364026230BDFFEFFFFF13
:100DC000FF8CFFFFFFDFFFFF002C014000440140CC
:100DD00000480140FFBFFFFF01220368D9680020DF
:100DE0001143D96019680A431A60704701210368EA
:100DF000DA688A43DA60186A054A104206D1186A2E
:100E0000044A104202D11A688A431A6000207047CF
:100E1000111100004404000070477047704770478C
:100E200070470222036810B51969040011420ED000
:100E3000D96811420BD0053A1A619B6904320277D6
:100E40009B0700D179E0FFF7E9FF00232377042215
:100E500023681969114210D0D96811420DD0093A9E
:100E60001A61073222779A69C0239B0020001A4238
:100E700069D0FFF7D3FF002323770822236819697D
:100E800011420ED0D96811420BD0113A1A61DB69B8
:100E90000D32227720009B075BD0FFF7BFFF0023B6
:100EA0002377102223681969114210D0D9681142A2
:100EB0000DD0213A1A6119322277DA69C0239B00DA
:100EC00020001A424BD0FFF7A9FF0023237701220D
:100ED00023681969114207D0D968114204D0033A36
:100EE0001A61200000F070FC802223681969114209
:100EF00008D0D968114205D0023AFF3A1A612000A1
:100F000000F068FA402223681969114207D0D968B5
:100F1000114204D0813A1A612000FFF781FF20229C
:100F200023681969114207D0D968114204D0413AA7
:100F30001A61200000F04DFA10BDFFF76EFF20008F
:100F4000FFF76DFF81E7FFF768FF2000FFF767FFFE
:100F500091E7FFF762FF2000FFF761FF9FE7FFF7D0
:100F60005CFF2000FFF75BFFAFE700001D4A10B5F4
:100F70000368904206D08024E405A04202D01A4CB7
:100F8000A0420CD17024A3434C68234390420FD05D
:100F90008024E405A0420BD0134CA04208D0134C8F
:100FA000A04205D0124CA04202D0124CA04203D164
:100FB000114C2340CC6823438024A3434C69234332
:100FC00003608B68C3620B688362904205D0084B54
:100FD000984202D0074B984201D10B690363012369
:100FE000436110BD002C014000040040002000407F
:100FF0000044014000480140FFFCFFFF70B50400C1
:101000000120002C14D025003D352B78DBB2002BBD
:1010100005D122003C321370200000F07FFD022336
:1010200020682B70211DFFF7A1FF012300202B70EA
:1010300070BD70B504000120002C14D025003D3592
:101040002B78DBB2002B05D122003C32137020003C
:10105000FFF7E2FE022320682B70211DFFF786FFB9
:10106000012300202B7070BD1022036A70B59343DA
:101070000362026A154D436884692C400D682D0295
:101080002C432025AA438D682D012A43104DA842E8
:101090000FD18025AA431500CA6812012A434025B2
:1010A000AA430C4D4E691D408B6933439B002B4373
:1010B00005E0094DA842F4D0084DA842F1D04360A4
:1010C0004B6884618363026270BDC046FF8CFFFF82
:1010D000002C0140FFF3FFFF0044014000480140A5
:1010E000F8B5060002233C360D00317804001800E4
:1010F000012925D0270001213D3731703B700C2A92
:101100001AD81000FFF70AF8071818181D18181831
:101110002F181818410029002068FFF7ADFD08229C
:10112000236899690A4304219A619A698A439A61FA
:101130009A6929690A439A61012300203B70307043
:10114000F8BD29002068FFF78FFF80222368120175
:1011500099690A439A619A6915490A409A612A690C
:1011600099691202E6E729002068FFF7C1FD08220D
:101170002368D9690A430421DA61DA698A43DA61AA
:10118000DA6929690A43DA61D6E729002068FFF79E
:10119000EFFD802223681201D9690A43DA61DA6916
:1011A00003490A40DA612A69D9691202EAE7C046AE
:1011B000FFFBFFFF30B58468034D0A431B022C4040
:1011C00013432343836030BDFF00FFFFF8B50500E4
:1011D00002233C352A7804001800012A19D0260081
:1011E000012720683D362F70337083684F4A1340C3
:1011F00083600B68402B00D16FE016D8102B00D114
:1012000087E007D8002B00D17DE001230020337058
:101210002870F8BD202B00D181E0302BF5D1702251
:10122000836893431A00372355E0702B33D01BD8C3
:10123000502B3BD0602BE8D110244B68CA68016A60
:101240003B4FA1430162846912033C402243A02426
:10125000016A82617022A1431B010B430362836810
:1012600093431A00672336E08022520193420DD047
:10127000802292019342C8D1CB684A688968FFF7FF
:1012800099FF80232268DB0191680CE007228368C4
:1012900093438360B9E7CB684A688968FFF78AFFA0
:1012A0007721226893680B439360AEE74A68CB6866
:1012B000016A046A1B01BC43F02704628469BC43D1
:1012C00023430A24A1430A43836102627022836894
:1012D00093431A0057231343DBE74A68CB68016A3C
:1012E000046A1B01BC43F02704628469BC432343A6
:1012F0000A24A1430A4383610262702283689343F4
:101300001A004723E7E77022836893431A000723F4
:10131000E1E77022836893431A001723DBE770220A
:10132000836893431A002723D5E7C0468800FFFF50
:10133000FF0FFFFF10B501248C408A40036AA343CE
:101340000362036A1A43026210BD000010B5040074
:1013500001220068FFF7EEFF23680A4A934205D096
:10136000094A934202D0094A934204D18022596C1F
:1013700012020A435A640122196800200A431A60C3
:1013800010BDC046002C014000440140004801400F
:1013900030B504003C34227803000220012A17D023
:1013A0001D001B683D3528705A686E3082435A60B4
:1013B0005A6808684968024380205A609A688243E4
:1013C0009A609A6800200A439A6001232B7020706B
:1013D00030BD70477047000070B504000568C269F1
:1013E000836800692968034360693F4E03433F48AF
:1013F000134301400B432B606B683D49206A0B404F
:10140000E1680B436B60A369A96803433948014055
:101410000B43AB6080231B02B54210D10320364939
:10142000096B01403548405C9A4213D0082858D8CF
:10143000FEF774FE375742574B5757575000304905
:101440008D424CD19A422CD1FFF770FB636840006B
:101450005B080BE0082821D8FEF756FEF620052091
:10146000182020201B0063685808264BC0186168AC
:10147000FEF75EFE83B200200F22190091430A009E
:101480001B0721685B0F1343CB6070BDFFF75EFA4B
:10149000DCE76368580880235B02E7E7012000234C
:1014A000EAE7FFF743FB61684B081818FEF740FEB8
:1014B00080B2E8600020E8E76168134B4808C01874
:1014C000FEF736FE80B2F060F4E7FFF73FFA61689E
:1014D0004B08F4E7802361681B024808EFE79A4253
:1014E000DCD00120D1E7C04600380140F369FFEFAE
:1014F000FFCFFFFFFFF4FFFF001002401C1E00089B
:10150000004400400024F40000127A00436A30B521
:10151000DA0706D50168284C4A682240846A2243CB
:101520004A609A0706D50168244C4A682240C46A7A
:1015300022434A605A0706D50168214C4A68224076
:10154000046B22434A601A0706D501681D4C4A689D
:101550002240446B22434A60DA0606D501681A4CE1
:101560008A682240846B22438A609A0606D5016805
:10157000164C8A682240C46B22438A605A0610D5F2
:101580000168134D4A68046C2A4022434A60802255
:101590005203944205D14A680E4C2240446C2243C7
:1015A0004A601B0606D502680B4953680B40816CE4
:1015B0000B43536030BDC046FFFFFDFFFFFFFEFF42
:1015C000FFFFFBFFFF7FFFFFFFEFFFFFFFDFFFFFDF
:1015D000FFFFEFFFFFFF9FFFFFFFF7FFF8B50400DE
:1015E0000E0015001F002268D36933409B1B59422F
:1015F0004B41AB4201D0002018E0069B0133F3D0F1
:10160000069B002B13D123680C491A6803200A405B
:101610001A609A68A331FF318A439A60220020231E
:10162000693213705370002368342370F8BDFEF7DD
:1016300035FE069BC01B8342D5D2E4E75FFEFFFF69
:1016400073B500260400C666FEF728FE164A236816
:101650000500934208D0220020230020693268341C
:1016600013705370207076BD1B681B070FD423685E
:101670001B685B07EFD580210C4B00220093C90348
:101680002B002000FFF7AAFF00280BD1E3E7802101
:10169000064B32000093890303002000FFF79EFFF2
:1016A0000028E4D00320DEE700380140FFFFFF01FF
:1016B00070B5041E01D1012070BD050069352B787D
:1016C000DBB2002B04D102006832137000F090FAF4
:1016D0002423012122682B70136820008B431360A0
:1016E000FFF77AFE0128E6D0636A002B02D02000C3
:1016F000FFF70CFF236808495A6820000A402A2196
:101700005A609A688A439A60012219680A431A60EB
:10171000FFF796FFD0E7C046FFB7FFFF30B599B09F
:10172000342200210BA800F054FB1022002101A854
:1017300000F04FFB1822002105A800F04AFB01250C
:1017400020230BA80B931395FEF7CEFE072300244E
:1017500001932900043B01A8029303940494FFF72A
:1017600031F905A805950794FFF7F0F919B030BDD8
:1017700010B5202815D10224104800F094F9104823
:10178000644203681C61FFF727FB0E4803681C6175
:10179000FFF722FB002290200421C005FEF792FEF5
:1017A00010BD082804D1054800F087F90122F2E7AE
:1017B0001028F5D1014800F085F9F1E72400002058
:1017C000D8010020180200200B4B026810B504005D
:1017D0009A4205D1094800F06BF90948FFF706FB6A
:1017E000084B22689A4205D1044800F066F9064881
:1017F000FFF7FCFA10BDC046002000402400002086
:10180000D80100200044014018020020AF22024B02
:1018100052001B685A637047980100201E22024B39
:101820001B685A637047C04698010020902010B58D
:1018300001224021C005FEF745FE10BD902010B5E5
:1018400000224021C005FEF73DFE10BDF0B591B06D
:10185000FEF70CFDFFF762FF1422002109A800F03B
:10186000B8FA80207D4B80025969002401435961F8
:1018700080215A69C902024090200192019A5A6956
:10188000C0050A435A615B6900220B40029346215E
:10189000029BFEF717FE90200625012709A9C00527
:1018A00009950B940C940A97FEF762FD902002268E
:1018B000402309A9C00509930C940A970B96FEF7DB
:1018C00057FD38230993664B09A966480A930B967E
:1018D000FEF74EFD220021002800FEF7F5FC28004F
:1018E000FEF722FD220021000720FEF7EDFC072075
:1018F000FEF71AFD5C485D4B8460036096231B0273
:1019000043600C23C460436104618461C461046268
:101910004462FFF7CDFE2100102205A800F059FA1D
:101920002100082203A800F054FA1C22210009A873
:1019300000F04FFA80234E4DDB052B605F236B6078
:101940004C4B2800EB608023AC602C61AB61FFF74F
:1019500055FB802305A95B0128000593FFF736FCA2
:101960002800FFF766FB03A9280003940494FFF7FF
:101970000FFD6023220009A9099328005C3B0D9309
:101980000A940B94FFF7ACFB280000F009F93A48E1
:101990003A4B846003603A4B04614360394B846185
:1019A000C360FFF72BFB3848384B84600360344B2F
:1019B00004614360364B4461C3608461FFF71EFBE2
:1019C00021002800FFF7C2FC902022003100C00552
:1019D000FEF778FD90203A000421C005FEF772FD65
:1019E0002C4C1025607823780002184300F058F83A
:1019F000FFF71CFF2848FEF757FC90203A00310003
:101A0000C005FEF75FFDFFF709FFFFF717FF6078DE
:101A100023780002184300F05AF83042F7D060787B
:101A200023780002184300F057F8284201D0FFF74E
:101A3000EDFE607823780002184300F052F8430668
:101A4000E5D5FFF7EBFEFFF7F1FE1448FEF72CFC9F
:101A5000FFF7F4FE002011B0F0BDC04600100240B8
:101A60000000111000040048280000200038014048
:101A7000980100200F270000D8010020002000401E
:101A80007FBB000027230000180200200044014013
:101A90007F3E00002400002088130000B80B0000E7
:101AA00082B002B07047012302781343037070477D
:101AB0000223027813430370704710230278134304
:101AC000037070474023027813430370704702236A
:101AD00082B0184002B07047102382B0184002B0A4
:101AE0007047402382B0184002B0704701200A4B73
:101AF00082B099690143996180219A694905024040
:101B00000092009ADA690A43DA61DB690B400193BB
:101B1000019B02B07047C046001002401FB58022F2
:101B20000368D20593420AD101201A4AD1690143C0
:101B3000D161D36903400193019B05B000BD164AF2
:101B4000934212D18020134A4000D1690143D161F0
:101B5000D369002203400293ED381100029BFEF787
:101B6000B3FB1320FEF7E0FBE7E70C4A9342E4D116
:101B70008020084A800291690143916193690022A3
:101B80000340039315201100039BFEF79DFB1520D6
:101B9000E8E7C04600100240002000400044014039
:101BA00010B5040086B01422002101A800F011F93C
:101BB00080232268DB059A4215D180200B4A8002DF
:101BC0005169014351615369032203400093009B13
:101BD0009020202301A90193C0051E3B029304928B
:101BE0000593FEF7C5FB06B010BDC04600100240CD
:101BF00010B5040088B01422002103A800F0E9F811
:101C0000134B22689A4220D18020124BC00199695F
:101C10000143996180219A69890202400192019AE7
:101C20005A6990200A435A615B69C0050B400293D0
:101C3000029BC023DB00039302230493013306932A
:101C400003A9023B0793FEF793FB08B010BDC04603
:101C500000380140001002407047FEE770477047AF
:101C600010B5FEF713FB10BD10B50820FEF730FCD1
:101C700010BD10B51020FEF72BFC2020FEF728FC2D
:101C800010BD000010B50248FFF7CBF810BDC046EC
:101C9000D801002010B50248FFF7C3F810BDC046B8
:101CA000180200200121114B11481A680A431A60DA
:101CB0005A6802405A601A680E4802401A601A6850
:101CC0000D4802401A605A680C4802400F205A60C2
:101CD000DA6A8243DA621A6B094802401A635A6B65
:101CE0008A435A6300229A607047C046001002403F
:101CF0000CB8FF08FFFFF6FEFFFFFBFFFFFFC0FF72
:101D00002CFEFFFF1348854604200168090E1F22A0
:101D1000914205D110480121016010480021016065
:101D20000F481049104A002302E0D458C45004332D
:101D3000C4188C42F9D30D4A0D4C002301E0136006
:101D40000432A242FBD3FFF7ADFF00F015F8FFF716
:101D50007DFDFEE700180020181002400000014041
:101D60000000002004000020401E000804000020A5
:101D700058020020FEE7000070B500260C4D0D4C07
:101D8000641BA410A64209D1002600F02BF80A4DCE
:101D90000A4C641BA410A64205D170BDB300EB58D9
:101DA00098470136EEE7B300EB5898470136F2E763
:101DB000381E0008381E0008381E00083C1E0008A7
:101DC000002310B59A4200D110BDCC5CC45401333D
:101DD000F8E703008218934200D17047197001336D
:101DE000F9E70000F8B5C046F8BC08BC9E4670474D
:0C1DF000F8B5C046F8BC08BC9E46704721
:101DFC0002030405060708090A0B0C0D0E0F101040
:101E0C000102030405060708090A0B0C0D0E0F103E
:101E1C00000408020000000000000000010203049E
:0C1E2C0006070809000000000102030482
:041E3800E9000008B5
:041E3C00C1000008D9
:041E400000127A0012
:0400000508001D05CD
:00000001FF
